:03000000020EB538
:0C0EB500787FE4F6D8FD75813A020EFC4F
:100FEF003F065B4F666D7D077F6F777C395E79714A
:080FFF00FEFDFBF7EFDFBF7FF1
:1010070004270000000002250000022B0000022137
:06101700000002230000AE
:100AB10012103112105112104112105812101EE46E
:100AC1007F3CFEFDFCAB2AAA29A928A827C312084E
:100AD100485006AC27EC335009E4F52AF529F528EE
:100AE100F527C3E526943CE525648094805009C32D
:100AF100E525648094805005E4F525F526C3E52CB1
:100B01009419E52B648094805009C3E52B6480948B
:100B1100805005E4F52BF52CD39200C200AE2BAF2B
:100B21002C7C007D0A1208127C007D0A12081274C6
:100B3100EF2DF582740F3CF583E493F531AE2BAFC5
:100B41002C7C007D0A12081274EF2DF582740F3C83
:100B5100F583E493F532753380AE25AF267C007DB5
:100B61000A1208127C007D0A12081274EF2DF58218
:100B7100740F3CF583E493F534AE25AF267C007DFC
:100B81000A12081274EF2DF582740F3CF583E49379
:100B9100F535753680E47B0AFAF9F8AF2AAE29AD4E
:100BA10028AC27120F41E47B0AFAF9F8120F4174BD
:100BB100EF2BF582740F3AF583E493F537E47B0A62
:100BC100FAF9F8AF2AAE29AD28AC27120F4174EF1C
:0F0BD1002BF582740F3AF583E493F538020AC0CE
:100FBC00E4FFFE74FF2FF582740F3EF583E493F586
:100FCC0080D2A1C2A174312FF8E6F580D2A0C2A0C4
:100FDC00E4F580D2A0C2A00FBF00010EEF64084E52
:020FEC0070D1C2
:010FEE0022E0
:03000B00020DD50E
:100DD500C0E0C0F0C083C082C0D075D000C000C0E4
:0D0DE50001C002C003C004C005C006C00765
:100DF200758CFE758A0C120FBC0524E52470020561
:100E0200230522E52270020521C3940AE5216480AC
:100E120094804008752100752200D200C3E5249415
:100E2200D0E52364809487406F752300752400E425
:100E3200FAF9F8E52A2401F52AEA3529F529E935EE
:100E420028F528E83527F527E47F3BFEFDFCAB2A91
:100E5200AA29A928A827C3120848403C752A007568
:100E620029007528007527000526E526700205254C
:100E7200943BE52564809480401E7525007526000C
:100E8200052CE52C7002052B9418E52B64809480C8
:080E92004006752B00752C00D1
:100E9A00D007D006D005D004D003D002D001D000AC
:0B0EAA00D0D0D082D083D0F0D0E03256
:03001B0002098156
:10098100C0E0C0F0C083C082C0D075D000C000C03C
:0D09910001C002C003C004C005C006C007BD
:10099E00758DEC758B78120BE0EE6003020A96EF04
:1009AE0014B408004003020A969009C575F003A41A
:1009BE00C58325F0C583730209DD0209F9020A1405
:1009CE00020A1E020A28020A32020A3C020A8AE4BB
:1009DE00FAF9F8E52A2401F52AEA3529F529E93547
:1009EE0028F528E83527F527020A9674FF252AF5FB
:1009FE002AE52934FFF529E52834FFF528E52734C3
:100A0E00FFF527020A960526E52670020525807851
:100A1E00E526152670021525806E052CE52C700234
:100A2E00052B8064E52C152C7002152B805AAE25F3
:100A3E00AF267C007D3C120800EE3395E0FDFCEF06
:100A4E00252AFFEE3529FEED3528FDEC3527FCC0B5
:100A5E0004A905AA06AB07AE2BAF2C7C0E7D101297
:100A6E000800EE3395E0FDFCD000EB2FF530EA3EAA
:100A7E00F52FE93DF52EE83CF52D800C753000750F
:080A8E002F00752E00752D00EC
:100A9600D007D006D005D004D003D002D001D000B4
:0B0AA600D0D0D082D083D0F0D0E0325E
:03002B00020CEDD7
:100CED00C0E0C0F0C083C082C0D075D000C000C0CD
:100CFD0001C002C003C004C005C006C007C2CFE5D5
:100D0D002645257028AF2AAE29AD28AC27EC4D4ECF
:030D1D004F701AFA
:100D2000F508F509120F850509E50970020508C3E4
:0A0D3000942CE5086480948140EAE9
:100D3A00AE25AF267C007D3C120800EE3395E0FD1F
:100D4A00FCEF252AFFEE3529FEED3528FDEC352787
:100D5A00FCC004A905AA06AB07AE2BAF2C7C0E7DFE
:100D6A0010120800EE3395E0FDFCD000EB2FFFEAED
:100D7A003EFEE93DFDE83CFCAB30AA2FA92EA82D8A
:100D8A00C3120848702AAF30AE2FAD2EAC2DEC4DF1
:040D9A004E4F601C3C
:100D9E00750800750900120F850509E50970020531
:0C0DAE0008C3942CE5086480948140EA9E
:100DBA00D007D006D005D004D003D002D001D0008D
:0B0DCA00D0D0D082D083D0F0D0E03237
:10103100438901758CFE758A0CD2AFD2A9D28C225C
:07105100D2AFD2A8D2882221
:10104100438901758DEC758B78D2AFD2ABD28E22EC
:07105800D2AFD2AAD28A2216
:10101E0075CB10E4F5CA85CBCD85CACCD2AFD2AD97
:03102E00D2CA2201
:100BE00020B51EE4FCFD0DBD00010CED64644C70ED
:100BF000F520B50D20B505120FBC80F87E007F01F1
:100C00002220B41EE4FCFD0DBD00010CED64644C1B
:100C100070F520B40D20B405120FBC80F87E007F63
:100C2000022220B31EE4FCFD0DBD00010CED646446
:100C30004C70F520B30D20B305120FBC80F87E0078
:100C40007F032220B21EE4FCFD0DBD00010CED640B
:100C5000644C70F520B20D20B205120FBC80F87EF6
:100C6000007F042220B11EE4FCFD0DBD00010CED4F
:100C700064644C70F520B10D20B105120FBC80F8F2
:100C80007E007F052220B01EE4FCFD0DBD00010C9E
:100C9000ED64644C70F520B00D20B005120FBC80DF
:100CA000F87E007F062220B61EE4FCFD0DBD00018B
:100CB0000CED64644C70F520B60D20B605120FBC27
:100CC00080F87E007F072220B71EE4FCFD0DBD00EA
:100CD000010CED64644C70F520B70D20B705120FC0
:0C0CE000BC80F87E007F08227E007F09A7
:010CEC0022E5
:060F8500B2927F017E0024
:100F8B00E4FDFCC3ED9FEE6480F8EC648098502088
:100F9B00E4F50AF50BC3ED9FEE6480F8EC648098E2
:100FAB0050070DBD00010C80EC0DBD00010C80D372
:010FBB002213
:100EC100020AB1E493A3F8E493A34003F68001F28C
:100ED10008DFF48029E493A3F85407240CC8C33332
:100EE100C4540F4420C8834004F456800146F6DF01
:100EF100E4800B0102040810204080901007E47E7A
:100F0100019360BCA3FF543F30E509541FFEE493F5
:100F1100A360010ECF54C025E060A840B8E493A3BC
:100F2100FAE493A3F8E493A3C8C582C8CAC583CAE7
:100F3100F0A3C8C582C8CAC583CADFE9DEE780BE9F
:01101D0000D2
:10080000EF8DF0A4A8F0CF8CF0A428CE8DF0A42E0C
:02081000FE22C6
:10081200C2D5EC30E709B2D5E4C39DFDE49CFCEE01
:1008220030E715B2D5E4C39FFFE49EFE12085EC313
:10083200E49DFDE49CFC800312085E30D507C3E40E
:060842009FFFE49EFE2270
:100F4100C2D5E830E70FB2D5E4C39BFBE49AFAE4DB
:100F510099F9E498F8EC30E717B2D5120F77120837
:100F6100EFE4C39BFBE49AFAE499F9E498F880036F
:100F71001208EF30D50DE4C39FFFE49EFEE49DFD12
:040F8100E49CFC22CE
:10084800EB9FF5F0EA9E42F0E99D42F0EC6480C827
:0608580064809845F022C7
:10085E00BC000BBE0029EF8DF084FFADF022E4CC7E
:10086E00F875F008EF2FFFEE33FEEC33FCEE9DEC47
:10087E00984005FCEE9DFE0FD5F0E9E4CEFD22ED8D
:10088E00F8F5F0EE8420D21CFEADF075F008EF2FD7
:10089E00FFED33FD4007985006D5F0F222C398FDC8
:0508AE000FD5F0EA2265
:1008B30075F008758200EF2FFFEE33FECD33CDCCFC
:1008C30033CCC58233C5829BED9AEC99E58298407F
:1008D3000CF582EE9BFEED9AFDEC99FC0FD5F0D65C
:1008E300E4CEFBE4CDFAE4CCF9A88222B800C1B986
:1008F3000059BA002DEC8BF084CFCECDFCE5F0CBC4
:10090300F97818EF2FFFEE33FEED33FDEC33FCEBFC
:1009130033FB10D703994004EB99FB0FD8E5E4F9B7
:10092300FA227818EF2FFFEE33FEED33FDEC33FCA4
:10093300C933C910D7059BE99A4007EC9BFCE99A98
:10094300F90FD8E0E4C9FAE4CCFB2275F010EF2FDD
:10095300FFEE33FEED33FDCC33CCC833C810D707DD
:100963009BEC9AE899400AED9BFDEC9AFCE899F818
:0E0973000FD5F0DAE4CDFBE4CCFAE4C8F922AB
:00000001FF
